{
  "contractName": "FavorCoin",
  "abi": [
    {
      "constant": true,
      "inputs": [
        {
          "name": "",
          "type": "address"
        }
      ],
      "name": "accounts",
      "outputs": [
        {
          "name": "exists",
          "type": "bool"
        },
        {
          "name": "friendGroup",
          "type": "uint256"
        },
        {
          "name": "favorBalance",
          "type": "uint256"
        },
        {
          "name": "reputationBalance",
          "type": "uint256"
        }
      ],
      "payable": false,
      "stateMutability": "view",
      "type": "function"
    },
    {
      "anonymous": false,
      "inputs": [
        {
          "indexed": false,
          "name": "_friendGroup",
          "type": "uint256"
        },
        {
          "indexed": false,
          "name": "_owner",
          "type": "address"
        }
      ],
      "name": "NewFriendGroup",
      "type": "event"
    },
    {
      "anonymous": false,
      "inputs": [
        {
          "indexed": false,
          "name": "_friendGroup",
          "type": "uint256"
        },
        {
          "indexed": false,
          "name": "_friend",
          "type": "address"
        }
      ],
      "name": "NewFriend",
      "type": "event"
    },
    {
      "anonymous": false,
      "inputs": [
        {
          "indexed": false,
          "name": "_friendGroup",
          "type": "uint256"
        },
        {
          "indexed": false,
          "name": "_from",
          "type": "address"
        },
        {
          "indexed": false,
          "name": "_to",
          "type": "address"
        }
      ],
      "name": "NewFavor",
      "type": "event"
    },
    {
      "constant": true,
      "inputs": [
        {
          "name": "_owner",
          "type": "address"
        }
      ],
      "name": "accountOf",
      "outputs": [
        {
          "components": [
            {
              "name": "exists",
              "type": "bool"
            },
            {
              "name": "friendGroup",
              "type": "uint256"
            },
            {
              "name": "favorBalance",
              "type": "uint256"
            },
            {
              "name": "reputationBalance",
              "type": "uint256"
            }
          ],
          "name": "",
          "type": "tuple"
        }
      ],
      "payable": false,
      "stateMutability": "view",
      "type": "function"
    },
    {
      "constant": true,
      "inputs": [],
      "name": "friends",
      "outputs": [
        {
          "name": "",
          "type": "address[]"
        }
      ],
      "payable": false,
      "stateMutability": "view",
      "type": "function"
    },
    {
      "constant": true,
      "inputs": [
        {
          "name": "friendGroup",
          "type": "uint256"
        }
      ],
      "name": "groupMembers",
      "outputs": [
        {
          "name": "",
          "type": "uint256"
        }
      ],
      "payable": false,
      "stateMutability": "view",
      "type": "function"
    },
    {
      "constant": false,
      "inputs": [],
      "name": "createFriendGroup",
      "outputs": [
        {
          "name": "",
          "type": "uint256"
        }
      ],
      "payable": false,
      "stateMutability": "nonpayable",
      "type": "function"
    },
    {
      "constant": false,
      "inputs": [
        {
          "name": "_friend",
          "type": "address"
        }
      ],
      "name": "addFriend",
      "outputs": [],
      "payable": false,
      "stateMutability": "nonpayable",
      "type": "function"
    },
    {
      "constant": false,
      "inputs": [
        {
          "name": "_to",
          "type": "address"
        }
      ],
      "name": "giveFavorCoin",
      "outputs": [],
      "payable": false,
      "stateMutability": "nonpayable",
      "type": "function"
    }
  ],
  "bytecode": "0x60606040526000600155341561001457600080fd5b610cb2806100236000396000f300606060405260043610610083576000357c0100000000000000000000000000000000000000000000000000000000900463ffffffff16806324694138146100885780633369bf92146100bf5780635e5c06e2146100e85780638086b8ba1461014e5780638784e0081461019b5780639504b4b514610205578063d7a1cfe11461023e575b600080fd5b341561009357600080fd5b6100a96004808035906020019091905050610277565b6040518082815260200191505060405180910390f35b34156100ca57600080fd5b6100d2610297565b6040518082815260200191505060405180910390f35b34156100f357600080fd5b61011f600480803573ffffffffffffffffffffffffffffffffffffffff169060200190919050506103b5565b604051808515151515815260200184815260200183815260200182815260200194505050505060405180910390f35b341561015957600080fd5b610185600480803573ffffffffffffffffffffffffffffffffffffffff169060200190919050506103f2565b6040518082815260200191505060405180910390f35b34156101a657600080fd5b6101ae610484565b6040518080602001828103825283818151815260200191508051906020019060200280838360005b838110156101f15780820151818401526020810190506101d6565b505050509050019250505060405180910390f35b341561021057600080fd5b61023c600480803573ffffffffffffffffffffffffffffffffffffffff1690602001909190505061049a565b005b341561024957600080fd5b610275600480803573ffffffffffffffffffffffffffffffffffffffff1690602001909190505061061c565b005b600060046000838152602001908152602001600020805490509050919050565b6000600160008154809291906001019190505550600154600260003373ffffffffffffffffffffffffffffffffffffffff1673ffffffffffffffffffffffffffffffffffffffff16815260200190815260200160002081905550600154600360003373ffffffffffffffffffffffffffffffffffffffff1673ffffffffffffffffffffffffffffffffffffffff16815260200190815260200160002081905550610340336107b7565b7f4388746873afde9b46ac47e168cadfa5857b829426b88ebd487ef5666770e2ca60015433604051808381526020018273ffffffffffffffffffffffffffffffffffffffff1673ffffffffffffffffffffffffffffffffffffffff1681526020019250505060405180910390a1600154905090565b60006020528060005260406000206000915090508060000160009054906101000a900460ff16908060010154908060020154908060030154905084565b6103fa610bf6565b6000808373ffffffffffffffffffffffffffffffffffffffff1673ffffffffffffffffffffffffffffffffffffffff168152602001908152602001600020608060405190810160405290816000820160009054906101000a900460ff1615151515815260200160018201548152602001600282015481526020016003820154815250509050919050565b61048c610c21565b6104953361097f565b905090565b6000600360003373ffffffffffffffffffffffffffffffffffffffff1673ffffffffffffffffffffffffffffffffffffffff1681526020019081526020016000205414156104e757600080fd5b6000600360008373ffffffffffffffffffffffffffffffffffffffff1673ffffffffffffffffffffffffffffffffffffffff16815260200190815260200160002054141561053457600080fd5b600360008273ffffffffffffffffffffffffffffffffffffffff1673ffffffffffffffffffffffffffffffffffffffff16815260200190815260200160002054600360003373ffffffffffffffffffffffffffffffffffffffff1673ffffffffffffffffffffffffffffffffffffffff168152602001908152602001600020541415156105c057600080fd5b60008060003373ffffffffffffffffffffffffffffffffffffffff1673ffffffffffffffffffffffffffffffffffffffff16815260200190815260200160002060020154111561060f57600080fd5b6106193382610a6b565b50565b600080600260003373ffffffffffffffffffffffffffffffffffffffff1673ffffffffffffffffffffffffffffffffffffffff168152602001908152602001600020541415151561066c57600080fd5b6000600360003373ffffffffffffffffffffffffffffffffffffffff1673ffffffffffffffffffffffffffffffffffffffff1681526020019081526020016000205414156106b957600080fd5b600360003373ffffffffffffffffffffffffffffffffffffffff1673ffffffffffffffffffffffffffffffffffffffff16815260200190815260200160002054905080600360008473ffffffffffffffffffffffffffffffffffffffff1673ffffffffffffffffffffffffffffffffffffffff16815260200190815260200160002081905550610748826107b7565b7fdbf7f44c6523e5b87d305fd55e6634f6922fbe9a688500afe33d98f42b91381b8183604051808381526020018273ffffffffffffffffffffffffffffffffffffffff1673ffffffffffffffffffffffffffffffffffffffff1681526020019250505060405180910390a15050565b60008060008060008573ffffffffffffffffffffffffffffffffffffffff1673ffffffffffffffffffffffffffffffffffffffff16815260200190815260200160002060000160009054906101000a900460ff1615151561081757600080fd5b600360008573ffffffffffffffffffffffffffffffffffffffff1673ffffffffffffffffffffffffffffffffffffffff1681526020019081526020016000205492506001915060009050608060405190810160405280600115158152602001848152602001838152602001828152506000808673ffffffffffffffffffffffffffffffffffffffff1673ffffffffffffffffffffffffffffffffffffffff16815260200190815260200160002060008201518160000160006101000a81548160ff02191690831515021790555060208201518160010155604082015181600201556060820151816003015590505060046000848152602001908152602001600020805480600101828161092a9190610c35565b9160005260206000209001600086909190916101000a81548173ffffffffffffffffffffffffffffffffffffffff021916908373ffffffffffffffffffffffffffffffffffffffff1602179055505050505050565b610987610c21565b6000600360008473ffffffffffffffffffffffffffffffffffffffff1673ffffffffffffffffffffffffffffffffffffffff16815260200190815260200160002054905060046000828152602001908152602001600020805480602002602001604051908101604052809291908181526020018280548015610a5e57602002820191906000526020600020905b8160009054906101000a900473ffffffffffffffffffffffffffffffffffffffff1673ffffffffffffffffffffffffffffffffffffffff1681526020019060010190808311610a14575b5050505050915050919050565b6000600360008473ffffffffffffffffffffffffffffffffffffffff1673ffffffffffffffffffffffffffffffffffffffff1681526020019081526020016000205490506000808473ffffffffffffffffffffffffffffffffffffffff1673ffffffffffffffffffffffffffffffffffffffff16815260200190815260200160002060020160008154809291906001900391905055506000808373ffffffffffffffffffffffffffffffffffffffff1673ffffffffffffffffffffffffffffffffffffffff168152602001908152602001600020600301600081548092919060010191905055507f444f077cddf0592801f45facc528aa501b7d3294fbb3bafa6690898498b36924818484604051808481526020018373ffffffffffffffffffffffffffffffffffffffff1673ffffffffffffffffffffffffffffffffffffffff1681526020018273ffffffffffffffffffffffffffffffffffffffff1673ffffffffffffffffffffffffffffffffffffffff168152602001935050505060405180910390a1505050565b6080604051908101604052806000151581526020016000815260200160008152602001600081525090565b602060405190810160405280600081525090565b815481835581811511610c5c57818360005260206000209182019101610c5b9190610c61565b5b505050565b610c8391905b80821115610c7f576000816000905550600101610c67565b5090565b905600a165627a7a72305820eb19a2807fd2a0d37d254c5673c7ef8d26b477be5b0c4c532222581d9f16a1480029",
  "source": "pragma solidity ^0.4.17;\n\nimport \"./safemath.sol\";\n\ncontract FavorCoin {\n\n  using SafeMath for uint256;\n\n  event NewFriendGroup(uint _friendGroup, address _owner);\n  event NewFriend(uint _friendGroup, address _friend);\n  event NewFavor(uint _friendGroup, address _from, address _to);\n\n  function accountOf(address _owner) public view returns (FavorAcct) {\n    return accounts[_owner];\n  }\n\n  function friends() public view returns (address[]) {\n    return _friendsOf(msg.sender);\n  }\n\n  function _friendsOf(address _owner) private view returns (address[]) {\n    uint friendGroup = friendToGroup[_owner];\n    return groupToFriends[friendGroup];\n  }\n\n  function groupMembers(uint friendGroup) public view returns (uint) {\n    return groupToFriends[friendGroup].length;\n  }\n\n  modifier groupOwner() {\n    require(ownerToGroup[msg.sender] != 0);\n    _;\n  }\n\n  struct FavorAcct {\n    bool exists;\n    uint friendGroup;\n    uint favorBalance;\n    uint reputationBalance;\n  }\n  \n  mapping (address => FavorAcct) public accounts;\n  uint private groupCount = 0;\n  mapping (address => uint) ownerToGroup;\n  mapping (address => uint) friendToGroup;\n  mapping (uint => address[]) groupToFriends;\n\n  function createFriendGroup() public returns (uint) {\n    groupCount++;\n    ownerToGroup[msg.sender] = groupCount;\n    friendToGroup[msg.sender] = groupCount;\n    _newFavorAcct(msg.sender);\n    NewFriendGroup(groupCount, msg.sender);\n    return groupCount;\n  }\n\n  function addFriend(address _friend) public groupOwner {\n    if (friendToGroup[msg.sender] == 0) { revert(); }\n    uint friendGroup = friendToGroup[msg.sender];\n    friendToGroup[_friend] = friendGroup;\n    _newFavorAcct(_friend);\n    NewFriend(friendGroup, _friend);\n  }\n\n  function _newFavorAcct(address _owner) private {\n    // if (!accounts[_owner].exists) { revert(); }\n    require(!accounts[_owner].exists);\n    uint friendGroup = friendToGroup[_owner];\n    uint favorBalance = 1;\n    uint reputationBalance = 0;\n    accounts[_owner] = FavorAcct(true, friendGroup, favorBalance, reputationBalance);\n    groupToFriends[friendGroup].push(_owner);\n  }\n\n  function giveFavorCoin(address _to) public {\n    if (friendToGroup[msg.sender] == 0) { revert(); }\n    if (friendToGroup[_to] == 0) { revert(); }\n    if (friendToGroup[msg.sender] != friendToGroup[_to]) { revert(); }\n    if (accounts[msg.sender].favorBalance > 0) { revert(); }\n    _giveFavorCoin(msg.sender, _to);\n  }\n\n  function _giveFavorCoin(address _from, address _to) private {\n    uint friendGroup = friendToGroup[_from];\n    accounts[_from].favorBalance--;\n    accounts[_to].reputationBalance++;\n    NewFavor(friendGroup, _from, _to);\n  }\n\n}",
  "sourcePath": "/Users/oj/Documents/git/favorcoin/contracts/favorcoin.sol",
  "compiler": {
    "name": "solc",
    "version": "0.4.19+commit.c4cbbb05.Emscripten.clang"
  },
  "schemaVersion": "1.0.1",
  "updatedAt": "2018-04-18T16:52:11.410Z"
}