{
  "contractName": "FavorCoin",
  "abi": [
    {
      "constant": true,
      "inputs": [
        {
          "name": "",
          "type": "address"
        }
      ],
      "name": "accounts",
      "outputs": [
        {
          "name": "exists",
          "type": "bool"
        },
        {
          "name": "friendGroup",
          "type": "uint256"
        },
        {
          "name": "favorBalance",
          "type": "uint256"
        },
        {
          "name": "reputationBalance",
          "type": "uint256"
        }
      ],
      "payable": false,
      "stateMutability": "view",
      "type": "function"
    },
    {
      "anonymous": false,
      "inputs": [
        {
          "indexed": false,
          "name": "_friendGroup",
          "type": "uint256"
        },
        {
          "indexed": false,
          "name": "_owner",
          "type": "address"
        }
      ],
      "name": "NewFriendGroup",
      "type": "event"
    },
    {
      "anonymous": false,
      "inputs": [
        {
          "indexed": false,
          "name": "_friendGroup",
          "type": "uint256"
        },
        {
          "indexed": false,
          "name": "_friend",
          "type": "address"
        }
      ],
      "name": "NewFriend",
      "type": "event"
    },
    {
      "anonymous": false,
      "inputs": [
        {
          "indexed": false,
          "name": "_friendGroup",
          "type": "uint256"
        },
        {
          "indexed": false,
          "name": "_from",
          "type": "address"
        },
        {
          "indexed": false,
          "name": "_to",
          "type": "address"
        }
      ],
      "name": "NewFavor",
      "type": "event"
    },
    {
      "constant": false,
      "inputs": [],
      "name": "createFriendGroup",
      "outputs": [
        {
          "name": "",
          "type": "uint256"
        }
      ],
      "payable": false,
      "stateMutability": "nonpayable",
      "type": "function"
    },
    {
      "constant": false,
      "inputs": [
        {
          "name": "_friend",
          "type": "address"
        }
      ],
      "name": "addFriend",
      "outputs": [],
      "payable": false,
      "stateMutability": "nonpayable",
      "type": "function"
    },
    {
      "constant": false,
      "inputs": [
        {
          "name": "_to",
          "type": "address"
        }
      ],
      "name": "giveFavorCoin",
      "outputs": [
        {
          "name": "",
          "type": "uint256"
        }
      ],
      "payable": false,
      "stateMutability": "nonpayable",
      "type": "function"
    },
    {
      "constant": true,
      "inputs": [
        {
          "name": "_owner",
          "type": "address"
        }
      ],
      "name": "accountOf",
      "outputs": [
        {
          "components": [
            {
              "name": "exists",
              "type": "bool"
            },
            {
              "name": "friendGroup",
              "type": "uint256"
            },
            {
              "name": "favorBalance",
              "type": "uint256"
            },
            {
              "name": "reputationBalance",
              "type": "uint256"
            }
          ],
          "name": "",
          "type": "tuple"
        }
      ],
      "payable": false,
      "stateMutability": "view",
      "type": "function"
    },
    {
      "constant": true,
      "inputs": [
        {
          "name": "_owner",
          "type": "address"
        }
      ],
      "name": "groupOf",
      "outputs": [
        {
          "name": "",
          "type": "uint256"
        }
      ],
      "payable": false,
      "stateMutability": "view",
      "type": "function"
    },
    {
      "constant": true,
      "inputs": [
        {
          "name": "_owner",
          "type": "address"
        }
      ],
      "name": "favorBalanceOf",
      "outputs": [
        {
          "name": "",
          "type": "uint256"
        }
      ],
      "payable": false,
      "stateMutability": "view",
      "type": "function"
    },
    {
      "constant": true,
      "inputs": [
        {
          "name": "_owner",
          "type": "address"
        }
      ],
      "name": "reputationBalanceOf",
      "outputs": [
        {
          "name": "",
          "type": "uint256"
        }
      ],
      "payable": false,
      "stateMutability": "view",
      "type": "function"
    },
    {
      "constant": true,
      "inputs": [],
      "name": "friends",
      "outputs": [
        {
          "name": "",
          "type": "address[]"
        }
      ],
      "payable": false,
      "stateMutability": "view",
      "type": "function"
    },
    {
      "constant": true,
      "inputs": [
        {
          "name": "friendGroup",
          "type": "uint256"
        }
      ],
      "name": "groupMembers",
      "outputs": [
        {
          "name": "",
          "type": "uint256"
        }
      ],
      "payable": false,
      "stateMutability": "view",
      "type": "function"
    }
  ],
  "bytecode": "0x60606040526000600155341561001457600080fd5b611065806100236000396000f3006060604052600436106100a4576000357c0100000000000000000000000000000000000000000000000000000000900463ffffffff16806324694138146100a95780633369bf92146100e05780635e5c06e2146101095780636634010e1461016f5780636babb42a146101bc5780638086b8ba146102095780638784e008146102565780639504b4b5146102c0578063d7a1cfe11461030d578063eb5b009314610346575b600080fd5b34156100b457600080fd5b6100ca6004808035906020019091905050610393565b6040518082815260200191505060405180910390f35b34156100eb57600080fd5b6100f36103b3565b6040518082815260200191505060405180910390f35b341561011457600080fd5b610140600480803573ffffffffffffffffffffffffffffffffffffffff169060200190919050506104d1565b604051808515151515815260200184815260200183815260200182815260200194505050505060405180910390f35b341561017a57600080fd5b6101a6600480803573ffffffffffffffffffffffffffffffffffffffff1690602001909190505061050e565b6040518082815260200191505060405180910390f35b34156101c757600080fd5b6101f3600480803573ffffffffffffffffffffffffffffffffffffffff169060200190919050506105b3565b6040518082815260200191505060405180910390f35b341561021457600080fd5b610240600480803573ffffffffffffffffffffffffffffffffffffffff16906020019091905050610658565b6040518082815260200191505060405180910390f35b341561026157600080fd5b610269610744565b6040518080602001828103825283818151815260200191508051906020019060200280838360005b838110156102ac578082015181840152602081019050610291565b505050509050019250505060405180910390f35b34156102cb57600080fd5b6102f7600480803573ffffffffffffffffffffffffffffffffffffffff1690602001909190505061075a565b6040518082815260200191505060405180910390f35b341561031857600080fd5b610344600480803573ffffffffffffffffffffffffffffffffffffffff16906020019091905050610928565b005b341561035157600080fd5b61037d600480803573ffffffffffffffffffffffffffffffffffffffff16906020019091905050610ac5565b6040518082815260200191505060405180910390f35b600060046000838152602001908152602001600020805490509050919050565b6000600160008154809291906001019190505550600154600260003373ffffffffffffffffffffffffffffffffffffffff1673ffffffffffffffffffffffffffffffffffffffff16815260200190815260200160002081905550600154600360003373ffffffffffffffffffffffffffffffffffffffff1673ffffffffffffffffffffffffffffffffffffffff1681526020019081526020016000208190555061045c33610b6a565b7f4388746873afde9b46ac47e168cadfa5857b829426b88ebd487ef5666770e2ca60015433604051808381526020018273ffffffffffffffffffffffffffffffffffffffff1673ffffffffffffffffffffffffffffffffffffffff1681526020019250505060405180910390a1600154905090565b60006020528060005260406000206000915090508060000160009054906101000a900460ff16908060010154908060020154908060030154905084565b60008060008373ffffffffffffffffffffffffffffffffffffffff1673ffffffffffffffffffffffffffffffffffffffff16815260200190815260200160002060000160009054906101000a900460ff16151561056a57600080fd5b6000808373ffffffffffffffffffffffffffffffffffffffff1673ffffffffffffffffffffffffffffffffffffffff168152602001908152602001600020600101549050919050565b60008060008373ffffffffffffffffffffffffffffffffffffffff1673ffffffffffffffffffffffffffffffffffffffff16815260200190815260200160002060000160009054906101000a900460ff16151561060f57600080fd5b6000808373ffffffffffffffffffffffffffffffffffffffff1673ffffffffffffffffffffffffffffffffffffffff168152602001908152602001600020600301549050919050565b610660610fa9565b6000808373ffffffffffffffffffffffffffffffffffffffff1673ffffffffffffffffffffffffffffffffffffffff16815260200190815260200160002060000160009054906101000a900460ff1615156106ba57600080fd5b6000808373ffffffffffffffffffffffffffffffffffffffff1673ffffffffffffffffffffffffffffffffffffffff168152602001908152602001600020608060405190810160405290816000820160009054906101000a900460ff1615151515815260200160018201548152602001600282015481526020016003820154815250509050919050565b61074c610fd4565b61075533610d32565b905090565b600080600360003373ffffffffffffffffffffffffffffffffffffffff1673ffffffffffffffffffffffffffffffffffffffff16815260200190815260200160002054141515156107aa57600080fd5b6000600360008473ffffffffffffffffffffffffffffffffffffffff1673ffffffffffffffffffffffffffffffffffffffff16815260200190815260200160002054141515156107f957600080fd5b600360008373ffffffffffffffffffffffffffffffffffffffff1673ffffffffffffffffffffffffffffffffffffffff16815260200190815260200160002054600360003373ffffffffffffffffffffffffffffffffffffffff1673ffffffffffffffffffffffffffffffffffffffff1681526020019081526020016000205414151561088557600080fd5b60008060003373ffffffffffffffffffffffffffffffffffffffff1673ffffffffffffffffffffffffffffffffffffffff168152602001908152602001600020600201541115156108d557600080fd5b6108df3383610e1e565b6000803373ffffffffffffffffffffffffffffffffffffffff1673ffffffffffffffffffffffffffffffffffffffff168152602001908152602001600020600201549050919050565b600080600260003373ffffffffffffffffffffffffffffffffffffffff1673ffffffffffffffffffffffffffffffffffffffff168152602001908152602001600020541415151561097857600080fd5b6000600360003373ffffffffffffffffffffffffffffffffffffffff1673ffffffffffffffffffffffffffffffffffffffff16815260200190815260200160002054141515156109c757600080fd5b600360003373ffffffffffffffffffffffffffffffffffffffff1673ffffffffffffffffffffffffffffffffffffffff16815260200190815260200160002054905080600360008473ffffffffffffffffffffffffffffffffffffffff1673ffffffffffffffffffffffffffffffffffffffff16815260200190815260200160002081905550610a5682610b6a565b7fdbf7f44c6523e5b87d305fd55e6634f6922fbe9a688500afe33d98f42b91381b8183604051808381526020018273ffffffffffffffffffffffffffffffffffffffff1673ffffffffffffffffffffffffffffffffffffffff1681526020019250505060405180910390a15050565b60008060008373ffffffffffffffffffffffffffffffffffffffff1673ffffffffffffffffffffffffffffffffffffffff16815260200190815260200160002060000160009054906101000a900460ff161515610b2157600080fd5b6000808373ffffffffffffffffffffffffffffffffffffffff1673ffffffffffffffffffffffffffffffffffffffff168152602001908152602001600020600201549050919050565b60008060008060008573ffffffffffffffffffffffffffffffffffffffff1673ffffffffffffffffffffffffffffffffffffffff16815260200190815260200160002060000160009054906101000a900460ff16151515610bca57600080fd5b600360008573ffffffffffffffffffffffffffffffffffffffff1673ffffffffffffffffffffffffffffffffffffffff1681526020019081526020016000205492506001915060009050608060405190810160405280600115158152602001848152602001838152602001828152506000808673ffffffffffffffffffffffffffffffffffffffff1673ffffffffffffffffffffffffffffffffffffffff16815260200190815260200160002060008201518160000160006101000a81548160ff021916908315150217905550602082015181600101556040820151816002015560608201518160030155905050600460008481526020019081526020016000208054806001018281610cdd9190610fe8565b9160005260206000209001600086909190916101000a81548173ffffffffffffffffffffffffffffffffffffffff021916908373ffffffffffffffffffffffffffffffffffffffff1602179055505050505050565b610d3a610fd4565b6000600360008473ffffffffffffffffffffffffffffffffffffffff1673ffffffffffffffffffffffffffffffffffffffff16815260200190815260200160002054905060046000828152602001908152602001600020805480602002602001604051908101604052809291908181526020018280548015610e1157602002820191906000526020600020905b8160009054906101000a900473ffffffffffffffffffffffffffffffffffffffff1673ffffffffffffffffffffffffffffffffffffffff1681526020019060010190808311610dc7575b5050505050915050919050565b6000600360008473ffffffffffffffffffffffffffffffffffffffff1673ffffffffffffffffffffffffffffffffffffffff1681526020019081526020016000205490506000808473ffffffffffffffffffffffffffffffffffffffff1673ffffffffffffffffffffffffffffffffffffffff16815260200190815260200160002060020160008154809291906001900391905055506000808373ffffffffffffffffffffffffffffffffffffffff1673ffffffffffffffffffffffffffffffffffffffff168152602001908152602001600020600301600081548092919060010191905055507f444f077cddf0592801f45facc528aa501b7d3294fbb3bafa6690898498b36924818484604051808481526020018373ffffffffffffffffffffffffffffffffffffffff1673ffffffffffffffffffffffffffffffffffffffff1681526020018273ffffffffffffffffffffffffffffffffffffffff1673ffffffffffffffffffffffffffffffffffffffff168152602001935050505060405180910390a1505050565b6080604051908101604052806000151581526020016000815260200160008152602001600081525090565b602060405190810160405280600081525090565b81548183558181151161100f5781836000526020600020918201910161100e9190611014565b5b505050565b61103691905b8082111561103257600081600090555060010161101a565b5090565b905600a165627a7a72305820c680fe69b783e4124b0fca20693a79b2e715988db524f43a53527060697635db0029",
  "source": "pragma solidity ^0.4.17;\n\nimport \"./safemath.sol\";\n\n// This is an experimental work in progres.\n// Learn more at: https://collabcoins.com\n\ncontract FavorCoin {\n\n  using SafeMath for uint256;\n\n  event NewFriendGroup(uint _friendGroup, address _owner);\n  event NewFriend(uint _friendGroup, address _friend);\n  event NewFavor(uint _friendGroup, address _from, address _to);\n\n  struct FavorAcct {\n    bool exists;\n    uint friendGroup;\n    uint favorBalance;\n    uint reputationBalance;\n  }\n  \n  mapping (address => FavorAcct) public accounts;\n  uint private groupCount = 0;\n  mapping (address => uint) ownerToGroup;\n  mapping (address => uint) friendToGroup;\n  mapping (uint => address[]) groupToFriends;\n\n  function createFriendGroup() public returns (uint) {\n    groupCount++;\n    ownerToGroup[msg.sender] = groupCount;\n    friendToGroup[msg.sender] = groupCount;\n    _newFavorAcct(msg.sender);\n    NewFriendGroup(groupCount, msg.sender);\n    return groupCount;\n  }\n\n  function addFriend(address _friend) public groupOwner {\n    require(friendToGroup[msg.sender] != 0);\n    uint friendGroup = friendToGroup[msg.sender];\n    friendToGroup[_friend] = friendGroup;\n    _newFavorAcct(_friend);\n    NewFriend(friendGroup, _friend);\n  }\n\n  function _newFavorAcct(address _owner) private {\n    require(!accounts[_owner].exists);\n    uint friendGroup = friendToGroup[_owner];\n    uint favorBalance = 1;\n    uint reputationBalance = 0;\n    accounts[_owner] = FavorAcct(true, friendGroup, favorBalance, reputationBalance);\n    groupToFriends[friendGroup].push(_owner);\n  }\n\n  function giveFavorCoin(address _to) public returns (uint) {\n    require(friendToGroup[msg.sender] != 0);\n    require(friendToGroup[_to] != 0);\n    require(friendToGroup[msg.sender] == friendToGroup[_to]);\n    require(accounts[msg.sender].favorBalance > 0);\n    _giveFavorCoin(msg.sender, _to);\n    return accounts[msg.sender].favorBalance;\n  }\n\n  function _giveFavorCoin(address _from, address _to) private {\n    uint friendGroup = friendToGroup[_from];\n    accounts[_from].favorBalance--;\n    accounts[_to].reputationBalance++;\n    NewFavor(friendGroup, _from, _to);\n  }\n\n  function accountOf(address _owner) public view returns (FavorAcct) {\n    require(accounts[_owner].exists);\n    return accounts[_owner];\n  }\n\n  function groupOf(address _owner) public view returns (uint) {\n    require(accounts[_owner].exists);\n    return accounts[_owner].friendGroup;\n  }\n\n  function favorBalanceOf(address _owner) public view returns (uint) {\n    require(accounts[_owner].exists);\n    return accounts[_owner].favorBalance;\n  }\n\n  function reputationBalanceOf(address _owner) public view returns (uint) {\n    require(accounts[_owner].exists);\n    return accounts[_owner].reputationBalance;\n  }\n\n  function friends() public view returns (address[]) {\n    return _friendsOf(msg.sender);\n  }\n\n  function _friendsOf(address _owner) private view returns (address[]) {\n    uint friendGroup = friendToGroup[_owner];\n    return groupToFriends[friendGroup];\n  }\n\n  function groupMembers(uint friendGroup) public view returns (uint) {\n    return groupToFriends[friendGroup].length;\n  }\n\n  modifier groupOwner() {\n    require(ownerToGroup[msg.sender] != 0);\n    _;\n  }\n\n}",
  "sourcePath": "/Users/oj/Documents/git/favorcoin/contracts/favorcoin.sol",
  "compiler": {
    "name": "solc",
    "version": "0.4.19+commit.c4cbbb05.Emscripten.clang"
  },
  "schemaVersion": "1.0.1",
  "updatedAt": "2018-04-18T23:16:08.880Z"
}